:100000000C9434000C943E000C943E000C943E0082
:100010000C943E000C943E000C943E000C943E0068
:100020000C943E000C943E000C943E000C943E0058
:100030000C943E000C943E000C943E000C943E0048
:100040000C943E000C943E000C943E000C943E0038
:100050000C943E000C943E000C943E000C943E0028
:100060000C943E000C943E0011241FBECFEFD8E04C
:10007000DEBFCDBF0E94F5000C9414010C9400006B
:10008000AC0184B1806284B920E030E01AC095B13F
:10009000906295B96FEF89E698E161508040904099
:1000A000E1F700C0000095B19F7D95B96FEF89E63B
:1000B00098E1615080409040E1F700C000002F5F60
:1000C0003F4F241735071CF3089584B1806284B92B
:1000D00085B18F7D85B9089514BC15BC1092800040
:1000E000109281001092B0001092B10008958330F8
:1000F000910591F48AB188608AB9E0EBF0E08081E3
:1001000083628083E1EBF0E080818560808360938F
:10011000B40080E090E008958530910569F48AB1DB
:1001200080628AB984B5836284BD85B5836085BDEC
:1001300068BD80E090E008958630910569F48AB149
:1001400080648AB984B5836C84BD85B5836085BDC0
:1001500067BD80E090E0089589309105B1F484B1E5
:10016000826084B9E0E8F0E0808181688083E1E822
:10017000F0E080818B608083862F972F9093890099
:100180008093880080E090E008958A309105B1F472
:1001900084B1846084B9E0E8F0E08081816280838A
:1001A000E1E8F0E080818B608083862F972F909329
:1001B0008B0080938A0080E090E008950B9791F483
:1001C00084B1886084B9E0EBF0E08081836880834B
:1001D000E1EBF0E08081856080836093B30080E094
:1001E00090E0089581E090E008950E946C006FE334
:1001F00070E08BE090E00E947700892B21F085E091
:1002000090E00E94400060E270E08AE090E00E948E
:100210007700892B21F086E090E00E9440000E9448
:0C022000650080E090E00895F894FFCFA6
:00000001FF
